:020000040000FA
:100000000C946E000C94591E0C94321E0C944B1FD1
:100010000C944B1F0C944B1F0C94341F0C94801E9B
:100020000C9496000C9496000C9496000C949600F8
:100030000C9496000C9496000C9496000C949600E8
:100040000C94E81D0C9496000C94021F0C94DC1E7A
:100050000C9496000C9496000C9496000C949600C8
:100060000C94C31F0C94960002536C656570696E06
:10007000672E2E2E0000000000240027002A00001A
:100080000000090003020000040508000000000051
:1000900000000000000000000000230026002900EE
:1000A00000000000250028002B00040404040404C0
:1000B0000404020202020202030303030303020216
:1000C00003010204081020408001020408102001EE
:1000D0000204081020408040EE201C2F11241FBE77
:1000E000CFEFD8E0DEBFCDBF13E0A0E0B1E0EAEF94
:1000F000FFE602C005900D92AC37B107D9F726E0B4
:10010000ACE7B3E001C01D92A136B207E1F710E001
:10011000CDE6D0E004C02197FE010E949F35CC3689
:10012000D107C9F70E94F0210C94F0370C9400001D
:10013000282F9091590581E0913208F042C08091BA
:1001400035058111FCCF8091580532E0309335059B
:10015000209334052FEF2093330528E335E03093C7
:100160003205209331051092300590932F0510929F
:100170002E0590912E05880F892B80932E05809156
:100180002D05813029F510922D0580912E05809343
:10019000BB008091BC0083FDF8CF85EC8093BC0050
:1001A000809135058230E1F3809133058F3F91F0E6
:1001B00080913305803281F080913305803371F076
:1001C00084E0109237051092590510923605089573
:1001D00085EEE4CF80E0F5CF82E0F3CF83E0F1CF8E
:1001E00008950895FB01A485B585ED91FC911197C3
:1001F0000190F081E02D682FCD01099590E080E01D
:100200000895843081F028F48230E9F08330F9F0E9
:100210000895883071F0893091F08530B9F480917B
:1002200080008F7D03C0809180008F778093800055
:1002300008958091B0008F778093B00008958091E9
:10024000B0008F7DF9CF84B58F7784BD089584B5D4
:100250008F7DFBCFCF93DF93E1E8F0E08491E3EC77
:10026000F0E0D491ECEAF0E0C491CC23A1F081114C
:100270000E940101EC2FF0E0EE0FFF1FEA56FF4F46
:10028000A591B491EC91ED2381E090E009F480E038
:10029000DF91CF91089580E090E0FACF1F93CF9344
:1002A000DF93282F30E0F901E158FF4F8491F901E5
:1002B000EF53FF4FD491F901E655FF4FC491CC2382
:1002C000A9F0162F81110E940101EC2FF0E0EE0F32
:1002D000FF1FE056FF4FA591B4918FB7F894EC91B2
:1002E000111108C0D095DE23DC938FBFDF91CF9131
:1002F0001F910895DE2BF8CFCF93DF9390E0FC01A0
:10030000EF53FF4F249186559F4FFC018491882322
:10031000C9F090E0880F991FFC01EB58FF4FA591A1
:10032000B491FC01E056FF4FC591D49161110DC00D
:100330009FB7F8948C91209582238C9388812823F1
:1003400028839FBFDF91CF910895623051F49FB70A
:10035000F8943C91822F809583238C93E8812E2BF7
:10036000EFCF8FB7F894EC912E2B2C938FBFEACF61
:100370008230910538F0880F991F880F991F0597D3
:100380000197F1F708953FB7F89480912205909175
:100390002305A0912405B091250526B5A89B05C08D
:1003A0002F3F19F00196A11DB11D3FBFBA2FA92FF4
:1003B000982F8827BC01CD01620F711D811D911DF1
:1003C00042E0660F771F881F991F4A95D1F708955D
:1003D0008F929F92AF92BF92CF92DF92EF92FF9255
:1003E0006B017C010E94C3014B015C01C114D1046B
:1003F000E104F104B9F00E94C301681979098A097E
:100400009B09683E73408105910580F321E0C21A83
:10041000D108E108F10888EE880E83E0981EA11C3F
:10042000B11CE4CFFF90EF90DF90CF90BF90AF90E2
:100430009F908F9008952FB7F89460911E0570914A
:100440001F0580912005909121052FBF08954F929F
:100450005F926F927F929F92AF92BF92CF92DF9204
:10046000EF92FF920F931F93CF93DF9300D01F92D1
:10047000CDB7DEB7D09003068091060690910706AF
:10048000A0910806B0910906892B8A2B8B2BD9F0F5
:100490000E94C301009162051091630520916405DB
:1004A00030916505601B710B820B930B0091060662
:1004B0001091070620910806309109066017710710
:1004C00082079307C8F20E94C3016093620570938C
:1004D00063058093640590936505E0910E06F091A5
:1004E0000F06309759F040910A0650910B06609123
:1004F0000C0670910D068D2D0995D82EE0906005A3
:10050000F09061054D2C512C712C612CE114F104FB
:1005100009F459C0D7011C96CC901C978091040611
:10052000909105068436910510F41C961C92D70113
:10053000ED91FC91A280B38019821A821B82DD208A
:1005400079F1F701369610E000E02191222319F1AC
:100550009280992001F130E050E040E02F5F3F4F62
:100560004F4F5F4FC301B2010E9460359B01AC0148
:10057000892D90E0B0E0A0E0BC01CD016F5F7F4F1E
:100580008F4F9F4F0E946035A1E0B0E0AC0FBD1FC0
:10059000A00FB11F8C930F5F1F4F03301105A9F6F9
:1005A00009811A812B81F701458556856281738106
:1005B000C701F5010995D7011C96CC921C9714969A
:1005C000ED90FC90A3CF80915E0590915F058C012A
:1005D0000F5F1F4F10935F0500935E054997B4F1BD
:1005E0000E941B02C0905A05D0905B05E0905C050C
:1005F000F0905D059B01AC012C193D094E095F0986
:1006000021F421E030E040E050E088EE93E0089FE4
:10061000B001099F700D189F700D1124072E000C5A
:10062000880B990B0E94173430930506209304061B
:1006300010925F0510925E050E941B0260935A059E
:1006400070935B0580935C0590935D050F900F9010
:100650000F90DF91CF911F910F91FF90EF90DF905E
:10066000CF90BF90AF909F907F906F905F904F9092
:10067000089580E991E00895089508959091040106
:1006800089130BC0E8E6F0E0E4919FEF909304013A
:10069000E13049F028F0E23061F060E00C944E0166
:1006A00010926E00FACF90916F009D7F90936F0033
:1006B000F4CF909170009D7F9093700091E09093A3
:1006C000B0009091B100987F94609093B100109227
:1006D000B300E3CFAF92BF92CF92DF92EF92FF923F
:1006E0000F931F93CF93DF936C017B018B01040F5A
:1006F000151FEB015E01AE18BF08C017D10759F0F6
:100700006991D601ED91FC910190F081E02DC60137
:100710000995892B79F7C501DF91CF911F910F9131
:10072000FF90EF90DF90CF90BF90AF900895FC01C5
:10073000538D448D252F30E0842F90E0821B930B46
:10074000541710F0CF96089501970895FC01918DEC
:10075000828D981761F0A28DAE0FBF2FB11D5D96EF
:100760008C91928D9F5F9F73928F90E008958FEF91
:100770009FEF0895FC01918D828D981731F0828D45
:10078000E80FF11D858D90E008958FEF9FEF08959C
:10079000FC01918D228D892F90E0805C9F4F821B00
:1007A00091098F739927089586E695E00E94C80302
:1007B00021E0892B09F420E0822F089580E090E069
:1007C000892B29F00E94D40381110C940000089514
:1007D000FC01A48DA80FB92FB11DA35ABF4F2C91B6
:1007E000848D90E001968F739927848FA689B789AD
:1007F0002C93A089B1898C91837080648C93938DA4
:10080000848D981306C00288F389E02D80818F7D46
:1008100080830895EF92FF920F931F93CF93DF93FE
:10082000EC0181E0888F9B8D8C8D98131AC0E8892C
:10083000F989808185FF15C09FB7F894EE89FF89FB
:100840006083E889F98980818370806480839FBF99
:1008500081E090E0DF91CF911F910F91FF90EF9099
:100860000895F62E0B8D10E00F5F1F4F0F731127A9
:10087000E02E8C8D8E110CC00FB607FCFACFE889E4
:10088000F989808185FFF5CFCE010E94E803F1CF81
:10089000EB8DEC0FFD2FF11DE35AFF4FF0829FB758
:1008A000F8940B8FEA89FB8980818062CFCFCF9348
:1008B000DF93EC01888D8823B9F0AA89BB89E88988
:1008C000F9898C9185FD03C0808186FD0DC00FB62E
:1008D00007FCF7CF8C9185FFF2CF808185FFEDCFAC
:1008E000CE010E94E803E9CFDF91CF910895FC018A
:1008F00083858F3F19F061E00C944E010895FC014F
:1009000080819181892B39F0A281B3819C911196CC
:100910008C919CBD8DBD83858F3F19F060E00C9458
:100920004E010895AF92BF92CF92DF92EF92FF9265
:100930000F931F93CF93DF93EC0188819981892BCB
:1009400089F06EBD0DB407FEFDCFBEB48B2DDF91D7
:10095000CF911F910F91FF90EF90DF90CF90BF90BC
:10096000AF9008958885998511E0892B09F010E8EA
:10097000AA24A394862F812309F0A12C062F2C8171
:100980003D814E815F8160E271EA87E090E00E94E4
:100990001734F22EB02EE12CC22ED12CFF2019F0EC
:1009A000C6010E94B8018A85877F09F042C08D8503
:1009B0008F3F89F0902F912381E009F480E08A1520
:1009C00051F0EF85F8898F89992369F19081892BFE
:1009D0008083AA24A394E989FA898081998D892B3F
:1009E0008083FF2019F0C6010E94B8018E858F3FD9
:1009F00039F0EB89FC898081988D892309F0E12AFF
:100A0000E989FA899081898D8095892380838E85F3
:100A10008F3F09F0BE2C88859985892BB9F5110F78
:100A20001111BCCF93CF9081809589238083A12C15
:100A3000D2CFE989FA898081998D892B8083FF2023
:100A400019F0C6010E94B8018D858F3F49F0EF85EE
:100A5000F8898F89902F9123A9F09081892B808329
:100A6000E989FA899081898D8095892380838E8593
:100A70008F3F69F2EB89FC898081988D892339F257
:100A8000E12AC5CF908180958923E9CF1695C8CFFB
:100A90008F929F92AF92BF92CF92DF92EF92FF928E
:100AA0000F931F93CF93DF937C014B016A01B22E0A
:100AB000A32E0E947F04E401C80CD91CCC15DD05CF
:100AC00069F4CB2DDA2D0C0F1D1FC017D10759F07B
:100AD0006FEFC7010E9492048993F7CF6991C70114
:100AE0000E949204EBCFC7010E94770481E0DF915E
:100AF000CF911F910F91FF90EF90DF90CF90BF901B
:100B0000AF909F908F9008958F929F92AF92BF92D7
:100B1000CF92DF92EF92FF920F931F93CF93DF93C9
:100B20007C01B62EA72E6A0149010E947F04E401D0
:100B3000080D191DC017D10761F4CB2DDA2DCC0E8D
:100B4000DD1ECC15DD0551F06991C7010E949204AC
:100B5000F8CF6991C7010E949204ECCFC7010E94AF
:100B6000770481E0DF91CF911F910F91FF90EF907B
:100B7000DF90CF90BF90AF909F908F9008951F937C
:100B8000CF93DF93EA01122FDC0111968D919C9196
:100B9000DC01ED91FC910280F381E02D0995C817ED
:100BA000D90729F4812F0E94980091E0811190E0EB
:100BB000892FDF91CF911F910895AF92BF92CF926D
:100BC000DF92EF92FF920F931F93CF93DF9300D0AA
:100BD000CDB7DEB7DC01211103C018962C91189710
:100BE000253008F043C01F964D935D936D937C9321
:100BF000529790E080E0E22EF12C8E159F05B4F420
:100C00001A962C911A9721110AC0FD01E80FF91FBD
:100C10004387452F562F672F77270196EECFF70191
:100C2000E81BF90BEA0FFB1F4287F3CF6D018BE046
:100C3000C80ED11C16969C91169717968C911797F3
:100C400099838A83AD90BC901197A114B10409F4E3
:100C500041C019960C9110E098012E0D3F1DD50151
:100C600014968D919C918217930710F480E016C022
:100C7000F50181819281208131E030933605209306
:100C8000580510923705109259050115110599F470
:100C900021E0A701B601C5010E94BF050F900F908A
:100CA000DF91CF911F910F91FF90EF90DF90CF9048
:100CB000BF90AF900895DC01ED91FC910280F3812B
:100CC000E02DA801BE016F5F7F4F09950817190736
:100CD00069F6DECF1296ED91FC911397309731F2C1
:100CE00014962D913C91159719960C9110E0233094
:100CF000310571F48E7F89839A830F5F1F4F9E01A8
:100D00002F5F3F4FA701B601CF010E948405C6CFD8
:100D10002115310519F49F779983F1CF22303105E0
:100D200011F49068F9CF2130310549F79F7790642D
:100D3000F3CF20915804309159042817390771F4E2
:100D40009091560480915704981741F0E091560411
:100D5000F0E0E151FC4F808190E008958FEF9FEF2C
:100D600008950F931F930E941B0260934606709391
:100D7000470680934806909349068EE396E00E94CA
:100D8000990697FF1DC00E941B0200914606109114
:100D900047062091480630914906601B710B820B73
:100DA000930B009142061091430620914406309126
:100DB00045066017710782079307F8F28FEF9FEFE0
:100DC0001F910F9108950895EF92FF920F931F9333
:100DD000CF93DF93DC015C96ED90FC905D97E1147E
:100DE000F10479F481E090E013969C938E9312972E
:100DF00090E080E0DF91CF911F910F91FF90EF90F5
:100E000008955196ED91FC91529750968C91509780
:100E1000982F90950FB75E962C915E97122F1270B7
:100E200021FD6095F8942081112319F1282B20834E
:100E3000E7012197F1F728E0462F50E0308160FF6D
:100E40001AC0382B3083E7012197F1F7BA01759565
:100E50006795215089F7112381F080818923808350
:100E60000FBF5C968D919C910197F1F781E090E026
:100E7000C1CF2923DCCF3923E5CF9081892BEFCF58
:100E800020915804309159042817390761F4809152
:100E900057042091560490E0805C9F4F821B91097B
:100EA0008F739927089590E080E008952091580469
:100EB0003091590428173907B9F49091560480915C
:100EC0005704981789F0E0915604F0E0E151FC4F87
:100ED00080812091560430E02F5F3F4F2F733327DE
:100EE0002093560490E008958FEF9FEF0895CF92DE
:100EF000DF92EF92FF92CF930E94B106FC0197FD23
:100F00004EC08D32910521F0C0970A9708F040C07D
:100F1000C12CD12C7601C0E0E130F105D1F0ED32E9
:100F2000F105D9F1CF01C0970A9798F4AAE0B0E093
:100F3000A70196010E94CD336F01FF0FEE08FF0855
:100F4000C60ED71EE81EF91E80E3C81AD108E108B4
:100F5000F1088EE396E00E9456070E94B106FC015C
:100F6000C0970A97C8F2E130F105B1F2CC2341F005
:100F7000F094E094D094C094C11CD11CE11CF11CED
:100F8000C701B601CF91FF90EF90DF90CF90089509
:100F90008EE396E00E945607AFCFC1E0DACFC12CB6
:100FA000D12C7601EDCF0F931F930E941B0260930B
:100FB00046067093470680934806909349068EE351
:100FC00096E00E94560797FF1DC00E941B020091E9
:100FD0004606109147062091480630914906601B4D
:100FE000710B820B930B00914206109143062091E6
:100FF0004406309145066017710782079307F8F29F
:101000008FEF9FEF1F910F91089585ED8093BC00A6
:101010008091BC0084FDFCCF10923505089520918D
:10102000CC03260F3327331F21323105ECF42091F6
:101030003505FC0190E080E0243069F082E00895FD
:10104000A091CC032191AC0144555C4FA40FB52F66
:10105000B11D2C930196861798F38091CC03680FED
:101060006093CC0380E0089581E0089510923505E7
:1010700081E08093340510922D0561E082E10E94A9
:101080004E0161E083E10E944E01E9EBF0E08081D6
:101090008E7F808380818D7F808388E48093B800F9
:1010A00085E48093BC000895CF93DF93EC018B819E
:1010B0008823A1F0888191E09093360580935805AC
:1010C000109237051092590581E00E94980091E036
:1010D000811190E0892FDF91CF91089510922C0516
:1010E00010922B0510923705109259050E94360870
:1010F00080EF90E090932A058093290581EF90E09E
:10110000909328058093270581E08B83CE010E9470
:101110005408982F8111CECFDDCFE0912C0580911E
:101120002B05E81730F4F0E0E15DFB4F808190E0A3
:1011300008958FEF9FEF089590912C0580912B05D6
:101140002FEF3FEF981748F4E92FF0E0E15DFB4FF8
:10115000208130E09F5F90932C05C9010895809114
:101160002B0590912C05891B990B0895CF92DF9246
:10117000EF92FF920F931F93CF93DF937C01CB01EC
:101180008A0120913605222389F0EB016B01C40E00
:10119000D51ECC15DD0569F06991D701ED91FC9163
:1011A0000190F081E02DC7010995F3CF642F0E94D3
:1011B0000F08C801DF91CF911F910F91FF90EF9021
:1011C000DF90CF900895CF93DF931F92CDB7DEB716
:1011D0006983209136052223F9F0209159052032A8
:1011E00058F021E030E0FC013383228390E080E07E
:1011F0000F90DF91CF91089580913705E82FF0E0AF
:10120000E85CFA4F998190838F5F809337058093D4
:10121000590581E090E0ECCF61E0CE0101960E949B
:101220000F08F7CF90E080E008950F931F93CF93BE
:10123000DF932091AB032F5F322F37703093AB03D6
:1012400020FF2BC020E831FD2064347009F02062BB
:10125000205FFC01EC01239600E011E06485662329
:1012600029F070E0C8010E9470356F5F6187322FEE
:10127000369F030E30E0311D1124311110C016824B
:10128000662311F0615061873196EC17FD0731F745
:10129000DF91CF911F910F91089520E0D4CF31506D
:1012A0003683EECF4F925F927F928F929F92AF9252
:1012B000BF92CF92DF92EF92FF920F931F93CF9343
:1012C000DF932C01EB010E94C301F20127853089D5
:1012D000621B730B6A307105B0F3F8948A819B81AD
:1012E000181619060CF0CBC1E881F98105B1086028
:1012F00075B1777F75B9BA848F812B2D281B822F0A
:101300002F834F85042E000C550BAA81BB81ED84E1
:10131000DC84CE84E394D394C3949E8138859984ED
:101320008B84118120E0F32E622F322F318111271F
:1013300088943111380F08F43FEF81958894E0FCD0
:10134000130F17958894E1FC130F17958894E2FC0E
:10135000130F17958894E3FC130F17958894E4FCFA
:10136000130F17958894E5FC130F17958894E6FCE6
:10137000130F17958894E7FC130F17958894232F64
:10138000E110212F8B0D122F002C05B900C017FF83
:1013900075B930812227889400C000C0002C75B92F
:1013A0003111390F00C0002C05B900C016FF75B906
:1013B00008F43FEF9195889400C000C0002C75B9E7
:1013C000D0FC230F00C0002C05B900C015FF75B973
:1013D00027958894D1FC230F00C000C0002C75B95C
:1013E0002795889400C0002C05B900C014FF75B97A
:1013F000D2FC230F2795889400C000C0002C75B93B
:10140000D3FC230F00C0002C05B900C013FF75B931
:1014100027958894D4FC230F00C000C0002C75B918
:101420002795889400C0002C05B900C012FF75B93B
:10143000D5FC230F2795889400C000C0002C75B9F7
:10144000D6FC230F00C0002C05B900C011FF75B9F0
:1014500027958894D7FC230F00C000C0002C75B9D5
:101460002795889400C0002C05B900C010FF75B9FD
:10147000132FD110122F990D00C000C0002C75B988
:1014800000C000C0002C05B900C017FF75B932813B
:101490002227889400C000C0002C75B931113F0D7F
:1014A00000C0002C05B900C016FF75B908F43FEF65
:1014B000E40FF51F00C000C0002C75B9C0FC230F5D
:1014C00000C0002C05B900C015FF75B92795889498
:1014D000C1FC230F00C000C0002C75B9279588946B
:1014E00000C0002C05B900C014FF75B9C2FC230F61
:1014F0002795889400C000C0002C75B9C3FC230F49
:1015000000C0002C05B900C013FF75B92795889459
:10151000C4FC230F00C000C0002C75B92795889427
:1015200000C0002C05B900C012FF75B9C5FC230F1F
:101530002795889400C000C0002C75B9C6FC230F05
:1015400000C0002C05B900C011FF75B9279588941B
:10155000C7FC230F00C000C0002C75B927958894E4
:1015600000C0002C05B900C010FF75B9132FC110C1
:10157000122FF19400C000C0002C75B9F80C00C007
:1015800000C005B900C017FF75B9318122278894C2
:1015900000C000C0002C75B93111380F00C0002CFC
:1015A00005B900C016FF75B908F43FEF819588941E
:1015B00000C000C0002C75B9E0FC230F00C0002C57
:1015C00005B900C015FF75B927958894E1FC230F74
:1015D00000C000C0002C75B92795889400C0002C6D
:1015E00005B900C014FF75B9E2FC230F2795889454
:1015F00000C000C0002C75B9E3FC230F00C0002C14
:1016000005B900C013FF75B927958894E4FC230F32
:1016100000C000C0002C75B92795889400C0002C2C
:1016200005B900C012FF75B9E5FC230F2795889412
:1016300000C000C0002C75B9E6FC230F00C0002CD0
:1016400005B900C011FF75B927958894E7FC230FF1
:1016500000C000C0002C75B92795889400C0002CEC
:1016600005B900C010FF75B9132FE110122F8B0DB3
:1016700000C000C0002C75B9119709F086CE4A81D0
:101680005B8120EE31E0DA010E948435DC01CB0180
:10169000F4E0B695A79597958795FA95D1F730E040
:1016A00020E0B901EAE94E9F040E611D5E9F600DC6
:1016B000711D1124650F711D860F971FA11DB11D8E
:1016C000893E43E09407A105B10508F434C0885E63
:1016D0009340A109B10942E0B695A79597958795E2
:1016E0004A95D1F747E0849F080E211D949F200D55
:1016F000311D1124290F311D6091AA0370E0860F5E
:10170000971F820F931F40911E0550911F056091F6
:10171000200570912105292F3327420F531F611D8A
:10172000711D40931E0550931F0560932005709313
:1017300021058093AA0378940E94C301F201708B63
:101740006787DF91CF911F910F91FF90EF90DF900E
:10175000CF90BF90AF909F908F907F905F904F9071
:10176000089581E090E00895239A08956F927F9202
:101770008F92CF92DF92EF92FF920F931F93CF93AE
:10178000DF93CDB7DEB762970FB6F894DEBF0FBE1A
:10179000CDBF6C017A013801822EDC011C962C91A0
:1017A000CA0157FF04C088279927841B950B7A83A9
:1017B00069839C838B839E838D836D867E868F86D3
:1017C000213049F5CE0101960E94150983E0888BEE
:1017D0001A8A198AF7FE02C08DEF888BD601ED9127
:1017E000FC910684F785E02DBE016F5F7F4FC60137
:1017F000099562960FB6F894DEBF0FBECDBFDF919C
:10180000CF911F910F91FF90EF90DF90CF908F902D
:101810007F906F9008951C861B861A8619861886FD
:101820001F82D4CFEF92FF920F931F93CF93DF933A
:10183000CDB7DEB762970FB6F894DEBF0FBECDBF4F
:101840007C01DC011C968C917A8369835C834B83D9
:101850005E834D830D871E872F878130F9F4CE017B
:1018600001960E941509188A1A8A198AD701ED91E2
:10187000FC910684F785E02DBE016F5F7F4FC701A5
:10188000099562960FB6F894DEBF0FBECDBFDF910B
:10189000CF911F910F91FF90EF9008951C861B86AA
:1018A0001A86198618861F82DECF8F929F92AF927A
:1018B000BF92CF92DF92EF92FF926B017C010E9468
:1018C0001B024B015C010E941B02681979098A09FD
:1018D0009B096C157D058E059F05A8F3FF90EF9081
:1018E000DF90CF90BF90AF909F908F9008952F92F0
:1018F0003F924F925F926F927F928F929F92AF92A0
:10190000BF92CF92DF92EF92FF920F931F93CF93EC
:10191000DF9300D000D01F92CDB7DEB71C018B0142
:10192000B0E0A0E089839A83AB83BC8380910401FB
:10193000863019F18F3F09F4DCC069817A818B818F
:101940009C810E94E80186E00F900F900F900F900D
:101950000F90DF91CF911F910F91FF90EF90DF904B
:10196000CF90BF90AF909F908F907F906F905F903F
:101970004F903F902F900C943E03E8E6F0E0949156
:101980009D8397FDDACF61E086E00E947C01BD81F6
:10199000BB2321F08D81823009F048C14801B12C70
:1019A000A12C60E072E18AE790E0A50198010E9415
:1019B000AE3329013A017A01690191E0C91AD108CF
:1019C000E108F108AFEFCA16D104E104F10409F00F
:1019D0000CF400C160E472E48FE090E0A50198018E
:1019E0000E94AE3369017A01B1E0CB1AD108E10857
:1019F000F1088D81823009F06EC182E09FEFC91637
:101A0000D104E104F10409F00CF46CC060E970ED5C
:101A100083E090E0A50198010E94AE3369017A014C
:101A2000A1E0CA1AD108E108F10883E0BFEFCB16A4
:101A3000D104E104F10409F00CF454C068E478EE38
:101A400081E090E0A50198010E94AE3369017A011E
:101A500081E0C81AD108E108F10884E09FEFC916B7
:101A6000D104E104F104F1F1ECF164E274EF80E0FF
:101A700090E0A50198010E94AE3369017A01A1E0CE
:101A8000CA1AD108E108F10885E0BFEFCB16D104EE
:101A9000E104F10439F130F162E17AE780E090E0AD
:101AA000A50198010E94AE3369017A0181E0C81A4C
:101AB000D108E108F10886E09FEFC916D104E104DE
:101AC000F10481F078F0730162012AE0F594E79463
:101AD000D794C7942A95D1F791E0C91AD108E108A3
:101AE000F10887E09091B100987F892B8093B10035
:101AF00079C086E080930401E8E6F0E0A491AD832C
:101B0000AF3F09F41ACFA13029F158F0A23009F4FF
:101B10003FC0BD81B7FD11CF61E086E00E947C012E
:101B200039CF14BC15BC84B5826084BD85B5816095
:101B300085BDE0EBF0E0E491F0E0EE0FFF1FE05632
:101B4000FF4F85919491E7ECF0E0E491E093A103DD
:101B50001D8219CF10928000109281008091810027
:101B600088608093810080918100816080938100F2
:101B7000E0EBF0E0E491F0E0EE0FFF1FE056FF4FE6
:101B800085919491E7ECF0E0E491E093A003FBCE23
:101B90001092B0001092B1008091B00082608093EA
:101BA000B0008091B10081608093B100E0EBF0E083
:101BB000E491F0E0EE0FFF1FE056FF4F8591949106
:101BC0009093500480934F04E7ECF0E0E491E093AD
:101BD0005104D9CE81E0AD81A11184CF95B5987F14
:101BE000892B85BD9801220F331FD1010E94393402
:101BF00028EE33E040E050E00E941734BD81B13060
:101C000009F447C0B23009F456C0B11196CEC7BC32
:101C10002093A6033093A7034093A8035093A903EE
:101C200080916E00826080936E0087CEB12CA12CD3
:101C300060E072E18AE790E0A50198010E94AE336E
:101C400069017A01B1E0CB1AD108E108F10891E00D
:101C5000C114D10481E0E806F10484F068E478EE70
:101C600081E090E0A50198010E94AE3369017A01FC
:101C700091E0C91AD108E108F10893E0AD81A130E3
:101C800009F0B0CF80918100887F892B80938100FB
:101C9000A9CFD0928900C09288002093A2033093EC
:101CA000A3034093A4035093A50380916F00826027
:101CB00080936F0042CEC092B300209352043093C1
:101CC00053044093540450935504809170008260F3
:101CD0008093700032CE82E0AFEFCA16D104E104E7
:101CE000F10409F00CF477CF68E478EE81E090E03D
:101CF000A50194010E94AE3369017A0181E0C81AFE
:101D0000D108E108F10883E09FEFC916D104E1048E
:101D1000F10409F00CF45FCF62E17AE780E090E033
:101D2000A50194010E94AE3369017A01B1E0CB1A9A
:101D3000D108E108F1088FEFC816D104E104F104DD
:101D400009F010F484E047CF730162019AE0F59442
:101D5000E794D794C7949A95D1F7A1E0CA1AD1080D
:101D6000E108F10885E037CF60E089E00E944E018C
:101D700061E08AE00C944E0161E089E00E944E012E
:101D800060E08AE00C944E0160E089E00E944E0120
:101D900060E08AE00C944E01E5E7F4E010821182E5
:101DA00012821382148215821682178210860C9476
:101DB0002702A82FCB01E5E7F4E080839183A2837B
:101DC00083839483A58386839783A0870C942702BB
:101DD000CF92DF92EF92FF92C0909803D090990338
:101DE000E0909A03F0909B0320E030E048EC52E44E
:101DF000C701B6010E947132181614F120E030E0DC
:101E000040EF51E4C701B6010E9456351816C4F4DC
:101E100060912B0670912C0680912D060E94D90EA0
:101E20008091D304813031F568EB7BE080E090E075
:101E30000E94550CFF90EF90DF90CF900C94CC0E49
:101E400020E030E040EF51E4C701B6010E9471325A
:101E5000181634F320E030E0A901C701B6010E9452
:101E6000563587FDDDCF6091280670912906809157
:101E70002A06D4CF823029F468E873E180E090E04C
:101E8000D7CF8330B9F660E177E280E090E0D0CF41
:101E90008091D204813039F580919703813091F49B
:101EA00066E071E084EF91E00E94770C68E871E0F1
:101EB00084EF91E00E94770C6AE471E088EE93E091
:101EC0000C94770C823079F46DE571E084EF91E049
:101ED0000E94770C6AE471E084EF91E00E94770C35
:101EE00066E071E0EBCF0895CF938130910569F5FD
:101EF0000E94CC0EC0E010927B04C0937C04109230
:101F00007D040E94270262E070E080E090E00E9481
:101F1000E801CF5FC73979F762E370E080E090E0D5
:101F20000E94E801C6E910927B04C0937C041092E1
:101F30007D040E94270262E070E080E090E00E9451
:101F4000E801C15080F7CF91089582309105A9F43E
:101F500060912B0670912C0680912D060E94D90E5F
:101F60008091D204813031F468EE73E088EB9BE01D
:101F70000E94770CCF910C94CC0E8330910589F49C
:101F800060912B0670912C0680912D060E94D90E2F
:101F90008091D204813071F768EE73E08CE291E0B9
:101FA000E7CF8430910549F460912B0670912C069F
:101FB00080912D06CF910C94D90E85309105D1F2E8
:101FC00020912B0630912C0640912D0686309105EC
:101FD00059F4842FB9010E94D90E64EF71E080E0BA
:101FE00090E00E94E801C6CF079729F4842FB90139
:101FF0000E94D90EB9CF842FB9010E94D90E68EE84
:1020000073E088EB9BE0CF910C94770C8091A40453
:10201000813011F40C94BC0E823051F40E94B40E45
:1020200064EF71E080E090E00E94E8010C94C40E3F
:10203000833011F40C94B40E843019F40E94BC0E59
:10204000EFCF08952F923F924F925F926F927F92BF
:102050008F929F92AF92BF92CF92DF92EF92FF92B8
:102060000F931F93CF93DF93CDB7DEB7C858D10935
:102070000FB6F894DEBF0FBECDBF4B015C01722FCF
:10208000632FFE0135968CE7DF011D928A95E9F7F3
:1020900081E090E0A0E0B0E089839A83AB83BC83C9
:1020A0003497CE0183589F4F019111912191319125
:1020B000000F111F221F331F0083118322833383DC
:1020C000E817F90789F769968CAD9DADAEADBFAD48
:1020D0006997CF57DF4F88839983AA83BB83C15801
:1020E000D040CD80DE80EF80F88449805A806B80BC
:1020F0007C80872F962FDA01312C212CA10170E0F2
:1021000060E0481559056A057B0508F052C0AC012E
:10211000BD01440F551F661F771FCB57DF4F488304
:1021200059836A837B83C558D040F1E0CF57DF4F96
:10213000488159816A817B81C158D0404823592305
:102140006A237B23452B462B472B09F4F0E0E1E083
:10215000B901A801482359236A237B23452B462B29
:10216000472B09F4E0E0FE27E1E0B701A601482390
:1021700059236A237B23452B462B472B09F4E0E0A8
:10218000EF2784219521A621B72141E0892B8A2BB5
:102190008B2B09F440E0E427CB57DF4F88819981EE
:1021A000AA81BB81C558D0408E2B5FEF251A350A16
:1021B000A5CFBC01CD01C857DF4F0FB6F894DEBFE5
:1021C0000FBECDBFDF91CF911F910F91FF90EF9088
:1021D000DF90CF90BF90AF909F908F907F906F9047
:1021E0005F904F903F902F9008958F929F92AF9263
:1021F000BF92CF92DF92EF92FF921F93CF93DF9324
:102200001092830310928403109285031092860328
:10221000C4E6D0E011E410937C0080917A008064E1
:1022200080937A0080917A0086FDFCCF60917800DF
:1022300070917900072E000C880B990B0E94783260
:10224000209183033091840340918503509186034C
:102250000E944934609383037093840380938503C1
:10226000909386032197B9F620E030E048EC52E4E1
:102270000E94B53460938303709384038093850335
:102280009093860320E030E040EA50E40E94D73289
:1022900020E030E040E85AE30E94D7326B017C0135
:1022A000C092D404D092D504E092D604F092D70420
:1022B0002CE53FE842E850E40E94563518160CF42D
:1022C0005AC02AE939E949E550E4C701B6010E943C
:1022D000713287FF08C09AE9C92E99E9D92E99E58C
:1022E000E92E90E4F92EA70196016CE57FE882E8DB
:1022F00090E40E9448349B01AC0168E774E18EE2EF
:102300009FE30E94483420E030E048EC52E40E9411
:10231000D73228E734E14EE25FE30E94B5346B0127
:102320007C01C0929803D0929903E0929A03F092B4
:102330009B038090000190900101A0900201B09059
:102340000301A50194010E9456351816ECF4809201
:10235000980390929903A0929A03B0929B03DF9105
:10236000CF911F91FF90EF90DF90CF90BF90AF90F3
:102370009F908F9008958CE5C82E8FE8D82E82E824
:10238000E82E80E4F82EAFCFC0920001D092010178
:10239000E0920201F0920301E2CF81E080938E048B
:1023A000089581E090E090939C0480939B040895AD
:1023B00082E090E090939C0480939B04089590E0C9
:1023C00080E00895FC018585968508950F931F93FD
:1023D000CF93DF9300D01F92CDB7DEB7AB01198248
:1023E0001A821B82DC01ED91FC910190F081E02DBD
:1023F00000E010E020E0BE016F5F7F4F09950F9075
:102400000F900F90DF91CF911F910F9108952F9210
:102410003F924F925F926F927F928F929F92AF9274
:10242000BF92CF92DF92EF92FF920F931F93CF93C1
:10243000DF9300D0CDB7DEB7FC014B01042F9681AE
:10244000878199838A83C080D180C114D10409F423
:10245000B8C0418550E0D60114968D919C918417A7
:102460009507B8F4312C832D0F900F90DF91CF9109
:102470001F910F91FF90EF90DF90CF90BF90AF90A2
:102480009F908F907F906F905F904F903F902F9094
:102490000895F601808191E0909336058093580568
:1024A000109237051092590520E0BE016F5F7F4FF3
:1024B000C6010E94BF05382E8823A1F210E0B12C7E
:1024C000A12C22242394A016B10668F6809135052C
:1024D0008111FCCFD60114968D919C917801EA1858
:1024E000FB088E159F0508F47C01F60190818E2D66
:1024F000813208F080E22092350541E098012E19E2
:102500003F09A216B30608F440E040933405FFEFFC
:10251000F09333052FE234E03093320520933105F8
:10252000109230052FEF280F20932F0520922E05B3
:1025300020912E05990F922B90932E0590912D05A9
:102540009130C1F510922D0590912E059093BB000E
:102550009091BC0093FDF8CF35EC3093BC00909186
:1025600035059130E1F390913005981710F4809182
:10257000300510922C0580932B058E151F0409F051
:1025800071CF34016A0C7B1C2301C20186199709A3
:102590008E159F0598F4D60111968D919C91DC01C2
:1025A000ED91FC910284F385E02D0995F201819370
:1025B0002F01EBCF95EE9093BC00D1CFAE0CBF1C9A
:1025C00082CFA281B381109709F44CCF2481358149
:1025D00010E0418550E02330310571F4816089833A
:1025E0009A834F5F5F4F9401BE016F5F7F4FCD01B4
:1025F0000E944805382E37CF2115310519F490680F
:102600009983F1CF2230310511F49F77F9CF213032
:10261000310549F7906CF4CFEF92FF920F931F931F
:10262000CF93DF93CDB7DEB7A6970FB6F894DEBF92
:102630000FBECDBF80912E0690912F061BA21CA22B
:102640001DA21EA29D8B8C8B1F8A1E8A11E01D8FDE
:1026500085E090E09B8F8A8F1E8F02E00C8F409167
:10266000320650913306609134067091350622E0AF
:10267000CE0144960E94DD0580912E0690912F0692
:10268000188A198A1A8A1B8A9A8389831C821B8258
:102690001A8784E090E098878F831B87098742E040
:1026A000BE01645F7F4FCE0101960E94071288230E
:1026B00041F0EC84FD849B85992319F0FE24EF24DE
:1026C000FE2480933006C701A6960FB6F894DEBFAD
:1026D0000FBECDBFDF91CF911F910F91FF90EF9073
:1026E00008954F925F926F927F928F929F92AF92D6
:1026F000BF92CF92DF92EF92FF92CF93DF9300D001
:1027000000D000D0CDB7DEB74090A6045090A7040B
:102710006090A8047090A9041092A6041092A704D7
:102720001092A8041092A9040E941B0269837A8364
:102730008B839C8328EC30E03E832D830E940C1316
:10274000BC01990F880B990B0E9478326B017C01B8
:10275000609136067091370680913806909139065F
:102760000E9476329B01AC01C701B6010E94B534CC
:102770002091A6043091A7044091A8045091A90487
:102780000E9449346093A6047093A7048093A80420
:102790009093A9044D815E81415051095E834D8320
:1027A000452B61F620E030E048EC52E40E94B5345D
:1027B0004B015C018092A6049092A704A092A80409
:1027C000B092A9040E941B026B017C01A30192013B
:1027D000C501B4010E9448344B015C01C701B60138
:1027E00029813A814B815C81621B730B840B950BB1
:1027F0000E9476329B01AC01C501B4010E94B53440
:1028000020E030E048EC52E40E94D732609393031A
:1028100070939403809395039093960326960FB636
:10282000F894DEBF0FBECDBFDF91CF91FF90EF9048
:10283000DF90CF90BF90AF909F908F907F906F90E0
:102840005F904F9008958F929F92AF92BF92CF92D8
:10285000DF92EF92FF92CF93DF93C4E6D0E0C12CDA
:10286000D12C76010E940C13BC01990F880B990B97
:102870000E9478324B015C016091360670913706F8
:1028800080913806909139060E9476329B01AC0106
:10289000C501B4010E94B5349B01AC01C701B6016A
:1028A0000E9449346B017C012197E1F620E030E081
:1028B00048EC52E40E94B534DF91CF91FF90EF9045
:1028C000DF90CF90BF90AF909F908F9008958F92A0
:1028D0009F92AF92BF92EF92FF920F931F93CF936D
:1028E000DF93EC014A015B01E880F980B701655F85
:1028F0007F4FF7014085C7010E940712882309F125
:10290000F701608570E030E020E080E090E0DC01DD
:1029100026173707CCF4BA2FA92F982F8827F7014D
:10292000428541110AC0FB01E21BF30BEE0DFF1DB6
:102930004285842B2F5F3F4FEBCFE20FF31F438580
:10294000F8CF8FEF9FEFDC012A8101E010E002C099
:10295000000F111F2A95E2F701501109012E000CFA
:10296000220B330BEB81B901A8010E2E04C0440FDA
:10297000551F661F771F0A94D2F7409550956095B2
:10298000709584239523A623B7230990D881C02D61
:10299000B901A801482159216A217B2104C0440FB3
:1029A000551F661F771FEA95D2F7482B592B6A2BC4
:1029B0007B2B2885CE01DF91CF911F910F91FF9046
:1029C000EF90BF90AF909F908F900C94DD05CF93C8
:1029D000DF93CDB7DEB767970FB6F894DEBF0FBEB3
:1029E000CDBF20912E0630912F06188A198A1A8A97
:1029F0001B8A3A8329831C821B8291E09A8718865E
:102A00001F829B8792E099879E012F5F3F4F3D8BEE
:102A10002C8B93E09E8B1F8A40E050E0BA0181111D
:102A200004C047E050E060E070E0CE0144960E94B0
:102A300067148093300667960FB6F894DEBF0FBE1A
:102A4000CDBFDF91CF9108958F929F92AF92BF92A9
:102A5000CF92DF92EF92FF92CF9380E00E94E71433
:102A60000E941B024B015C01C1E00E941B0268191D
:102A700079098A099B09683873418105910560F5D8
:102A80000E9423146B017C01C092A604D092A7047B
:102A9000E092A804F092A90420E030E0A9010E948D
:102AA0005635181624F0F7FAF094F7F8F09420E071
:102AB00030E040EA50E4C701B6010E94563587FD78
:102AC00005C0C09392030E94C40ECFCF1092920310
:102AD000812C912C5401C9CF81E00E94E714809190
:102AE0009203813061F4F0E0E0E0CF91FF90EF904D
:102AF000DF90CF90BF90AF909F908F9009941092ED
:102B0000A6041092A7041092A8041092A904CF91D1
:102B1000FF90EF90DF90CF90BF90AF909F908F90FD
:102B20000895CF92DF92EF92FF92CF9380E00E94C0
:102B3000E7140E941B0260938E0370938F038093AF
:102B4000900390939103C1E080917E04813009F05D
:102B5000FAC08091D104813009F0AFC080919E0409
:102B6000813009F0AAC080918D038111A6C08091A7
:102B70008C038111A2C08091D8049091D904009750
:102B800009F094C080919D04813009F096C00E94A4
:102B90007113C0908A03D0908B0321E0C216D10438
:102BA00011F4C0938D03E0908803F090890381E0D5
:102BB000E816F10411F4C0938C038091D80490912D
:102BC000D9042091D104213009F0A0C020919E04A5
:102BD000213009F09BC020918D03211197C02091D5
:102BE0008C03211193C0009709F072C080919D045D
:102BF000813009F098C020E030E040E251EC609173
:102C000093037091940380919503909196030E9491
:102C1000713287FF13C02FEFC21AD20AD0928B03F2
:102C2000C0928A031092870310927E046CED75E0C7
:102C300080E090E00E94E8010E94C40EC090A604CB
:102C4000D090A704E090A804F090A90420E030E020
:102C5000A901C701B6010E945635181624F0F7FAEB
:102C6000F094F7F8F09420E030E046E953E4C7012F
:102C7000B6010E945635181614F410927E040E9474
:102C80001B02C0908E03D0908F03E0909003F090D1
:102C900091036C197D098E099F0961317742810585
:102CA000910508F451CF10927E044ECF019729F47C
:102CB00080919D04882309F46ACF0E9423146093B5
:102CC000A6047093A7048093A8049093A90461CFED
:102CD000019749F580919D04811125C020E030E0E5
:102CE00040E251EC609193037091940380919503BD
:102CF000909196030E94713287FFA0CF8FEFE81A60
:102D0000F80AF0928903E09288038CCF8130910514
:102D100069F480919D04813031F410928B031092FC
:102D20008A0310928D03C093870388CF892BD9F72C
:102D300080919D048111F7CF10928903109288032E
:102D400010928C03F0CF1092930310929403109280
:102D50009503109296031092A6041092A704109265
:102D6000A8041092A90410928E0310928F0310925F
:102D700090031092910381E0CF91FF90EF90DF904C
:102D8000CF900C94E71480918F04813099F462E322
:102D900070E080E090E00E94E8018DEC91E190937A
:102DA000060180930501809169008C7F8260809389
:102DB0006900E89A80918F048230E9F410929C04B3
:102DC00010929B0481ED91E190930601809305019F
:102DD000809169008C7F826080936900E89A88ED19
:102DE00091E19093080180930701809169008C60C4
:102DF00080936900E99A0895EF92FF920F931F93D1
:102E0000CF93DF93CDB7DEB7A6970FB6F894DEBFAA
:102E10000FBECDBF80912E0690912F06892BA9F46D
:102E200086E090E00E94A535FC0180913106808308
:102E300080E196E092838183138280E290E0958323
:102E40008483F0932F06E0932E06E0902E06F090F8
:102E50002F0610922C0510922B0510923705109218
:102E600059050E94360880EF90E090932A058093E0
:102E7000290581EF90E0909328058093270511E0C4
:102E8000F7011383C7010E945408082F882309F40F
:102E90005EC080E090E1A0E0B0E0809332069093C5
:102EA0003306A0933406B09335068AE090E0A0E0A4
:102EB000B0E08093360690933706A0933806B0931F
:102EC000390680E090E0A0E0B0E480933A06909369
:102ED0003B06A0933C06B0933D0680912E06909150
:102EE0002F061BA21CA21DA21EA29D8B8C8B1F8ACB
:102EF0001E8A1D8F85E090E09B8F8A8F1E8F82E057
:102F0000F82EFC8E22E040E050E160E070E0CE015F
:102F100044960E94DD0580912E0690912F06188A16
:102F2000198A1A8A1B8A9A8389831C821B821A87B0
:102F300018861F821B87F98622E04FE959E360E07B
:102F400070E0CE0101960E94DD0580933006802F4F
:102F5000A6960FB6F894DEBF0FBECDBFDF91CF911E
:102F60001F910F91FF90EF900895CF93DF93CDB70E
:102F7000DEB72E970FB6F894DEBF0FBECDBF82EF3F
:102F800090E09A8789871C861B8682E08C8386E680
:102F900095E09E878D87AE01495E5F4F6D897E8982
:102FA000CE0101960E94EA2F2E960FB6F894DEBF4E
:102FB0000FBECDBFDF91CF9108950E948737FB01EF
:102FC00001900020E9F73197AF01461B570BDC0158
:102FD000ED91FC910280F381E02D09948F929F92F4
:102FE000AF92BF92EF92FF920F931F93CF93DF9315
:102FF000CDB7DEB7A1970FB6F894DEBF0FBECDBF39
:103000007C01FA01CB0119A2223008F42AE08E01DA
:103010000F5D1F4F822E912CB12CA12CBF01A50159
:1030200094010E941734F901CA016A300CF5605D01
:10303000D8016E938D01232B242B252B79F790E05B
:1030400080E0109721F0BD01C7010E94DF17A19613
:103050000FB6F894DEBF0FBECDBFDF91CF911F91A9
:103060000F91FF90EF90BF90AF909F908F90089539
:10307000695CDECFCF93DF93AC01990F660B770BC2
:103080002AE086E695E00E94EE17EC0163E771E026
:1030900086E695E00E94DF178C0F9D1FDF91CF9190
:1030A0000895CF93DF93BC0186E695E00E94DF1779
:1030B000EC0163E771E086E695E00E94DF178C0F74
:1030C0009D1FDF91CF9108954F925F926F927F92F3
:1030D0008F929F92AF92BF92CF92DF92EF92FF9228
:1030E0006B017C01AC019B010E945B3566E771E0DE
:1030F00081111AC046015701E894B7F82FEF3FEF4E
:103100004FE75FE7C501B4010E945B35811126C01E
:103110002FEF3FEF4FE75FE7C501B4010E94713227
:103120001816E4F46AE771E08EE396E00E94DF1778
:103130007C0163E771E08EE396E00E94DF178E0D5D
:103140009F1DFF90EF90DF90CF90BF90AF909F902A
:103150008F907F906F905F904F9008952FEF3FEF8B
:103160004FE75FE4C701B6010E94563518161CF4FC
:103170006EE771E0D9CF2FEF3FEF4FE75FECC7016C
:10318000B6010E94713287FDF3CF20E030E0A90143
:10319000C701B6010E947132B12CA12C87FF0AC071
:1031A0006DE28EE396E00E94E4065C01F7FAF0948B
:1031B000F7F8F0942AE037ED43EA5BE3C701B60184
:1031C0000E9449342B013C010E9427356B017C0190
:1031D0000E9476329B01AC01C301B2010E944834C7
:1031E0002B013C012AE0B701A6018EE396E00E9484
:1031F000EE177C01EA0CFB1C6EE28EE396E00E9467
:10320000E406E80EF91E20E030E040E251E4C3019C
:10321000B2010E94D7322B013C010E9427354B019D
:10322000B12CA12C2AE0B501A4018EE396E00E9406
:10323000EE17E80EF91EC501B4010E9476329B011B
:10324000AC01C301B2010E94483420E030E040E20A
:1032500051E40E94D7320E942735AB0170E060E054
:103260002AE08EE396E00E94EE17E80EF91E61CF89
:10327000FF920F931F93CF93DF93CDB7DEB7A09745
:103280000FB6F894DEBF0FBECDBFF62E1A8219829C
:10329000FE0133962EE1DF011D922A95E9F7BC016C
:1032A0008E010F5F1F4FC8010E94A937F8010190DE
:1032B0000020E9F7CF010197801B910BE1E0E80FB7
:1032C000D801A80FB11D2DE02C932E2F30E0409196
:1032D0008D0447FD02C044307CF0FF2031F0E2E075
:1032E000E80F200F311FD901FC9281E08E0FE00F13
:1032F000F12FF11D108206C08E5F200F311F9AE062
:10330000D9019C93F801E80FF11D1082B8018EE3FA
:1033100096E00E94DF17A0960FB6F894DEBF0FBEAE
:10332000CDBFDF91CF911F910F91FF9008950F9323
:103330001F93CF93DF938C01EB01FC01808191817E
:103340000097E1F06881798161157105A9F04281EA
:1033500053812C813D814217530770F00E94A93799
:103360008C819D81F801958384831D821C82DF916D
:10337000CF911F910F9108950E94413688819981C4
:10338000F801918380838A819B81938382838C81DE
:103390009D8195838483198218821B821A82E5CFCE
:1033A000CF93DF93EC0188819981009711F00E94FF
:1033B0004136198218821D821C821B821A82DF917B
:1033C000CF910895FC0180819181009711F00C94B8
:1033D000413608950F931F93CF93DF93EC018881BB
:1033E0009981009759F02A813B812617370730F0E1
:1033F00081E0DF91CF911F910F9108958B016F5F55
:103400007F4F0E94CA36009759F0998388831B83A7
:103410000A832C813D81232B59F7FC011082E8CFD0
:1034200080E0E7CFEF92FF920F931F93CF93DF934C
:1034300000D0CDB7DEB78C0169831A82FC01E4802D
:10344000F580FFEFEF1AFF0AB7010E94EA198823FF
:1034500081F0F8012081318184819581BE016F5F07
:103460007F4F820F931F0E94A937F801F582E482F3
:1034700081E00F900F90DF91CF911F910F91FF90FE
:10348000EF900895EF92FF920F931F93CF93DF93E6
:10349000EC017B018A01BA010E94EA1981110BC07B
:1034A000CE010E94D019CE01DF91CF911F910F91D3
:1034B000FF90EF9008951D830C83B7018881998157
:1034C0000E94A937F0CFFB0101900020E9F7319766
:1034D000AF01461B570B0C94421AFC01118210825B
:1034E0001382128215821482FB0101900020E9F7F9
:1034F0003197AF01461B570B0C94421A1F93CF9381
:10350000DF93EC016115710521F08EE396E00E94D6
:10351000DF1764E670E080E090E00E94E80164EF6D
:1035200071E080E090E00E94E80163EA71E0CE0182
:103530000E946D1A8EE396E00E9440071816190645
:103540009CF58EE396E00E944007892B69F18EE39B
:1035500096E00E945607182F80932605682F82E276
:1035600096E00E94121A1A3061F786E0C232D8073C
:1035700071F060912206709123066115710581F04A
:103580004091260650912706CE010E94421A1092C1
:10359000260563EA71E082E296E00E94631AD1CFC9
:1035A000CE010E94D019F3CFCE01DF91CF911F91B0
:1035B0000895CF93DF9300D000D000D0CDB7DEB711
:1035C00062E871E0CE0101960E947E1ACE0101965A
:1035D0000E94E21926960FB6F894DEBF0FBECDBF4B
:1035E000DF91CF910895AF92BF92CF92DF92EF9289
:1035F000FF920F931F93CF93DF936C015B017A01CE
:1036000089012417350720F48F2D7901042F182FF5
:1036100063EA71E0C6010E946D1AD5011496CD913E
:10362000DC91EC16FD06E0F40C171D0708F4E80128
:10363000D501ED91FC911197EC0FFD1F10811082C7
:103640006D917C916E0D7F1DC60161157105A1F014
:103650000E94631AF50180819181C80FD91F1883D8
:10366000C601DF91CF911F910F91FF90EF90DF90F6
:10367000CF90BF90AF9008950E94D019EBCFCF9319
:10368000DF93CDB7DEB762970FB6F894DEBF0FBEFB
:10369000CDBF6AE871E0CE0107960E946D1A22E163
:1036A00030E050E040E0BE01695F7F4FCE010196FF
:1036B0000E94F31A69817A81CE010D960E947E1ACA
:1036C000CE0101960E94E219CE0107960E94E219EE
:1036D000CE010D960E94E21962960FB6F894DEBFF5
:1036E0000FBECDBFDF91CF910895CF92DF92EF92C1
:1036F000FF920F931F93CF93DF93EB017B0124E0A5
:10370000E20EF11C8B016C01C61AD70AC601800FAC
:10371000911F0E949833F80181938F01EE15FF05E8
:10372000A9F7CE01DF91CF911F910F91FF90EF90FC
:10373000DF90CF9008950C94983381E090E09093BF
:10374000D9048093D80483E090E00E949B1B8111F0
:1037500004C082E08093970302C08130D9F381E0F6
:1037600080937E040E94BC0E8091D104813031F49C
:103770006CED75E080E090E00E94E8010E949115F8
:103780000E94C40E0E9424156AE070E080E090E080
:103790000E94E80180918703813061F40E94B40E99
:1037A00068EE73E080E090E00E94E8010E94C40EA1
:1037B000109287030E9424158091D204813011F465
:1037C0000C94480F08951092D9041092D80483E005
:1037D00090E00E949B1B811136C081E0809397038B
:1037E00081E080937E040E94B40E8091D1048130E8
:1037F00031F46CED75E080E090E00E94E8010E94F9
:1038000091150E94C40E0E9424156AE070E080E0C9
:1038100090E00E94E80180918703813061F40E946A
:10382000BC0E68EE73E080E090E00E94E8010E9428
:10383000C40E109287030E9424158091D204813017
:1038400031F40C94480F813059F682E0C7CF0895C7
:1038500080E093E00E949B1B80938D0481E090E0C8
:103860000E949B1B813021F081E080938C0408959D
:1038700010928C0483E090E00E949B1B80939D0437
:1038800084E090E00E949B1B80939E0485E690E07C
:103890000E949B1B8093D20486E690E00E949B1BB3
:1038A0008093D30487E690E00E949B1B8093D10411
:1038B00088E690E00E949B1B80931C0589E690E0BF
:1038C0000E949B1B8093D0046AE075E085E090E045
:1038D0000E94751BFC0180819181A281B38180933C
:1038E0000A0590930B05A0930C05B0930D0562E0BB
:1038F00075E08FE090E00E94751BFC018081918152
:10390000A281B3818093020590930305A0930405DF
:10391000B093050562EF74E089E190E00E94751BA9
:10392000FC0180819181A281B3818093F204909304
:10393000F304A093F404B093F5046AEE74E083E218
:1039400090E00E94751BFC0180819181A281B3816E
:103950008093EA049093EB04A093EC04B093ED04FD
:1039600008958F929F92AF92BF92CF92DF92EF9283
:10397000FF920F931F93CF93DF93CDB7DEB7A0973E
:103980000FB6F894DEBF0FBECDBF6B017C014901BD
:103990005A011A821982FE0133968EE1DF011D92CF
:1039A0008A95E9F70E94922F2FE037E240E050E03D
:1039B0000E94AE3360939C0370939D0380939E039B
:1039C00090939F03C80CD91CEA1CFB1CC60ED71E83
:1039D000E81EF91E20918D048E010F5F1F4F2430C9
:1039E0008CF5FF92EF92DF92CF928EE991E09F9358
:1039F0008F931F930F930E94CD370FB6F894DEBFBD
:103A00000FBECDBFB8018EE396E00E94DF17609134
:103A10009C0370919D0380919E0390919F03A096BB
:103A20000FB6F894DEBF0FBECDBFDF91CF911F91CF
:103A30000F91FF90EF90DF90CF90BF90AF909F904D
:103A40008F900895FF92EF92DF92CF928DEC92E0EB
:103A5000CECFFF920F931F93CF93DF93EC01F62EFF
:103A600008811981C8010E949833F81621F06F2D42
:103A7000C8010E94A033CE01DF91CF911F910F9119
:103A8000FF900895FF920F931F93CF93DF93CDB7CD
:103A9000DEB72F970FB6F894DEBF0FBECDBF1E86E0
:103AA0001D861F8663EA71E0CE0107960E946D1A9B
:103AB00064EA71E0CE0101960E947E1ABE016F5F3A
:103AC0007F4FCE0107960E949719CE0101960E9462
:103AD000E2190F81188540E150E06DEA71E0C801FC
:103AE0000E94B037F82E81112EC0B801605F7F4F61
:103AF00042E050E0CE010D960E94BE379D85905366
:103B00008E8580532AE0929F800D112480938D042E
:103B100080E093E09A83898360918D04CE010196C1
:103B20000E94291DCE0107960E94E2198F2D2F9623
:103B30000FB6F894DEBF0FBECDBFDF91CF911F91BE
:103B40000F91FF9008950000E3CFAF92BF92CF9204
:103B5000DF92EF92FF920F931F93CF93DF9300D0EA
:103B6000CDB7DEB78B016B0124E0C20ED11C7B0107
:103B70005C01A61AB70AC5018E0D9F1D9A83898321
:103B8000F70161917F01CE0101960E94291DEC147D
:103B9000FD0489F7C8010F900F90DF91CF911F911D
:103BA0000F91FF90EF90DF90CF90BF90AF9008956E
:103BB000CF93DF9300D0CDB7DEB79A838983CE0150
:103BC00001960E94291D0F900F90DF91CF910895CB
:103BD0001F920F920FB60F9211242F933F938F9342
:103BE0009F93AF93BF9380911E0590911F05A09165
:103BF0002005B091210530911D0523E0230F2D37BD
:103C000068F126E8230F0296A11DB11D20931D0522
:103C100080931E0590931F05A0932005B093210566
:103C20008091220590912305A0912405B09125054E
:103C30000196A11DB11D8093220590932305A093A9
:103C40002405B0932505BF91AF919F918F913F912E
:103C50002F910F900FBE0F901F9018950196A11DE8
:103C6000B11DD4CF1F920F920FB60F9211242F9334
:103C70003F934F935F936F937F938F939F93AF93F4
:103C8000BF93EF93FF93E0910701F091080109952D
:103C9000FF91EF91BF91AF919F918F917F916F9124
:103CA0005F914F913F912F910F900FBE0F901F90FA
:103CB00018951F920F920FB60F9211242F933F93D6
:103CC0004F935F936F937F938F939F93AF93BF9324
:103CD000EF93FF93E0910501F09106010995FF91A3
:103CE000EF91BF91AF919F918F917F916F915F9174
:103CF0004F913F912F910F900FBE0F901F901895ED
:103D00001F920F920FB60F9211242F933F934F9350
:103D10005F936F937F938F939F93AF93BF93EF9333
:103D2000FF938091520490915304A0915404B09158
:103D30005504892B8A2B8B2BD1F190915104E09162
:103D40004F04F09150048081892780838091520430
:103D500090915304A0915404B0915504181619067B
:103D60001A061B069CF48091520490915304A09172
:103D70005404B09155040197A109B10980935204EC
:103D800090935304A0935404B0935504FF91EF9182
:103D9000BF91AF919F918F917F916F915F914F9163
:103DA0003F912F910F900FBE0F901F90189580910B
:103DB00004010E943E03EACF1F920F920FB60F92AA
:103DC00011242F933F934F935F936F937F938F9320
:103DD0009F93AF93BF93EF93FF9386E695E00E9486
:103DE000E803FF91EF91BF91AF919F918F917F91E8
:103DF0006F915F914F913F912F910F900FBE0F9058
:103E00001F9018951F920F920FB60F9211242F93A7
:103E10008F939F93EF93FF93E0917605F091770551
:103E20008081E0917C05F0917D0582FD1BC0908131
:103E300080917F058F5F8F7320918005821741F0FD
:103E4000E0917F05F0E0EA59FA4F958F80937F0566
:103E5000FF91EF919F918F912F910F900FBE0F9037
:103E60001F9018958081F4CF1F920F920FB60F927A
:103E700011248F930FB6F894A89580916000886103
:103E800080936000109260000FBE8F910F900FBE64
:103E90000F901F9018951F920F920FB60F9211243A
:103EA0002F933F934F935F936F937F938F939F9342
:103EB000AF93BF93EF93FF93E0915804F0915904AF
:103EC000309749F0A685B7858585968D91FF14C0FA
:103ED0009C918923A1F4FF91EF91BF91AF919F91A4
:103EE0008F917F916F915F914F913F912F910F90A3
:103EF0000FBE0F901F9018959C91892361F7A3899D
:103F0000B4899C918589809589238C93868997892A
:103F10000197F1F7608D718DA685B785558538E0DD
:103F200020E0CB010197F1F7822F90E095958795DE
:103F3000282F4C91452309F02068315091F7868D48
:103F400081FD20958091570490E001968F73992709
:103F500030915604381799F0A0915704B0E0A15160
:103F6000BC4F2C9380935704828D938D0197F1F76A
:103F7000A389B4898C919589892B8C93ACCF868D3C
:103F80008160868FF1CF1F920F920FB60F9211248E
:103F90002F933F934F935F936F937F938F939F9351
:103FA000AF93BF93EF93FF938091B900887F8036E2
:103FB00009F44AC0F0F5883209F4A7C018F5803139
:103FC00009F49BC0B8F4882309F405C1883009F4CA
:103FD00094C0FF91EF91BF91AF919F918F917F918D
:103FE0006F915F914F913F912F910F900FBE0F9066
:103FF0001F901895883109F488C0803251F780935A
:10400000330514C0803409F4A5C040F48033B9F3FB
:104010008833F9F68093330585ECBCC0803509F40C
:1040200089C0883509F49EC0883499F60E94050835
:10403000D0CF883909F494C038F5883729F050F486
:10404000883611F0803729F683E080933505109289
:10405000EE0357C0883809F483C0803919F08038DE
:1040600009F0B7CF8091EE03803208F079C0E0917B
:10407000EE0381E08E0F8093EE038091BB00F0E0B1
:10408000E253FC4F80833DC0803B39F0E0F4803A3E
:1040900009F485C0883A09F09CCF84E08093350507
:1040A0001092CD031092CC03E0912905F0912A05DE
:1040B00009958091CC0381110FC081E08093CC03DE
:1040C0001092AC0309C0803C09F4A6CF883C09F4E7
:1040D000A3CF883B09F07DCFE091CD0381E08E0F27
:1040E0008093CD03F0E0E455FC4F80818093BB00CA
:1040F0009091CD038091CC0331C080912E058093A7
:10410000BB0085EC8093BC0064CF9091300580911A
:104110002F059817B8F58091310590913205E091FF
:10412000300521E02E0F20933005E80FF92FF11D07
:104130008081E5CF2091310530913205E091300545
:1041400081E08E0F809330058091BB00E20FF32F4A
:10415000F11D80839091300580912F05981788F28A
:1041600085E8D0CF2091310530913205E0913005BE
:1041700081E08E0F809330058091BB00E20FF32F1A
:10418000F11D808380913405811150CF81E08093AF
:104190002D0584EA8093BC00109235051ACF85EC7A
:1041A0008093BC00109235058091EE03803230F48C
:1041B000E091EE03F0E0E253FC4F10826091EE03D9
:1041C00070E0E0912705F09128058EEC93E00995C9
:1041D0001092EE03FECE1092330528CF109269059F
:1041E0001092680588EE93E0A0E0B0E080936A0545
:1041F00090936B05A0936C05B0936D0521E431E0BD
:10420000309367052093660525EC30E03093730505
:104210002093720524EC30E03093750520937405EB
:1042200020EC30E0309377052093760521EC30E0E8
:10423000309379052093780522EC30E030937B05AC
:1042400020937A0526EC30E030937D0520937C05A1
:1042500010927F05109280051092810510928205C0
:104260002FEF209303061092050610920406109279
:104270000F0610920E064FEF5FEFBA0140930A0649
:1042800050930B0660930C0670930D061092130664
:10429000109212068093140690931506A0931606AA
:1042A000B093170623E531E03093110620931006F2
:1042B0001092410610924006809342069093430666
:1042C000A0934406B093450685E691E090933F069F
:1042D00080933E061092550610925406109257068F
:1042E00010925606109259061092580610925B06CC
:1042F00010925A0660915C066E7F6D7F60935C063B
:104300006695617081E0682784E00E944E0161E05B
:1043100084E00E947C01E5ECF0E0E491E0934E063D
:10432000EEEAF0E0E491F0E0EE0FFF1FE056FF4F01
:10433000859194919093500680934F0660E085E0BC
:104340000E947C0180915C0681FD04C061E085E0F3
:104350000E944E0185E080934A06E6ECF0E0E4918D
:10436000E0934B06EFEAF0E0E491F0E0EE0FFF1F80
:10437000EA56FF4F8591949190934D0680934C0699
:1043800010922F0610922E0685E48093310610922B
:10439000360610923706109238061092390610929F
:1043A0003A0610923B0610923C0610923D0610927F
:1043B0002B0686E980932C0610922D068093280602
:1043C0001092290610922A0663EA71E082E296E0D2
:1043D0000E946D1A63EA71E08CE196E00C946D1A0C
:1043E000CF93DF93CDB7DEB7AC970FB6F894DEBFAF
:1043F0000FBECDBF789484B5836084BD85B58360DE
:1044000085BD80916E00816080936E0012E01093F4
:104410008100809181008160809381008091800083
:104420008160809380008091B10084608093B100AE
:104430008091B00081608093B00087E880937A001B
:104440001092C1000E941B02609318057093190519
:1044500080931A0590931B05E0917605F0917705FE
:104460001083E0917205F09173051082E09174055C
:10447000F0917505AFECFA2EF08210927E05E09176
:104480007A05F0917B0506E00083E0917805F091D4
:104490007905808188698083E0917805F0917905BC
:1044A00080818F7D80838EEB91E00E945118E09196
:1044B0007605F09177051083E0917205F091730510
:1044C0001082E0917405F0917505F08210927E05DE
:1044D000E0917A05F0917B050083E0917805F091F9
:1044E0007905808188698083E0917805F09179056C
:1044F00080818F7D80831092590610925806109209
:1045000057061092560610925506109254068FE7E1
:1045100096E090935B0680935A0680914A06873115
:1045200008F04BC02EE233E030935506209354063A
:104530002DE736E0309357062093560625ED34E0FC
:1045400030935906209358062091680094E08830F3
:1045500054F091E08E303CF092E0843124F091E010
:10456000863109F490E0922B909368002DE630E0BC
:10457000883074F08E300CF4B5C184313CF0863153
:104580000CF4B0C130E020E0863111F42CE630E0CC
:10459000309352062093510688300CF0A6C191E06A
:1045A00001C0990F8A95EAF7892F8093530680916D
:1045B0005A0690915B060197F1F780915806909109
:1045C0005906892B49F1E0915804F091590426E0ED
:1045D000EE33F20709F1309739F0A389B4899C9141
:1045E0008589809589238C9380915C068E7F80934A
:1045F0005C0610925704109256048EE396E0909356
:10460000590480935804E0915106F091520680813C
:1046100090915306892B808380916D04811145C050
:1046200010925F0410925E048FEF80936204809377
:10463000630480936404809365048093660480938C
:10464000670481E08093680410926A041092690400
:104650001092610410926004809160059091610550
:10466000892B31F48CE594E090936105809360058B
:10467000E0915A04F0915B04309721F08CE594E0CE
:10468000958384838CE594E090935B0480935A0433
:1046900010926C0410926B048DE291E090935D0493
:1046A00080935C0481E080936D04239A85E794E015
:1046B00090935F0480935E0483E090E090936A049B
:1046C000809369048091060690910706A0910806E0
:1046D000B0910906843CE9E09E07A105B10520F4EC
:1046E00084EC99E0A0E0B0E0809306069093070682
:1046F000A0930806B093090661E086E00E947C0161
:1047000061E089E00E947C0161E08AE00E947C0116
:1047100062E082E00E947C010E94CC0E60E086E0B4
:104720000E944E010E94C40E81E090E00E949B1BFB
:10473000813009F448C30E94281C87E090E00E9461
:10474000740F80918D04811102C00E94421D6BEC98
:1047500071E08E010F5F1F4FC8010E947E1AC801D1
:104760000E94E21964ED71E0C8010E947E1AC8013E
:104770000E94E21981E090E00E94740F67ED71E001
:10478000C8010E947E1AC8010E94E21981E090E0EF
:104790000E94740F60EE71E0C8010E947E1AC80189
:1047A0000E94E21981E090E00E94740F69EE71E0CE
:1047B000C8010E947E1AC8010E94E21962EF71E0EE
:1047C000C8010E947E1AC8010E94E21981E090E0AF
:1047D0000E94740F64EA71E0CE0181960E947E1AF5
:1047E0006BEF71E089A19AA10E94A037892B41F457
:1047F0006FE072E0C8010E947E1AC8010E94E219AF
:1048000081E090E00E94740F6AE172E0C8010E94AA
:104810007E1AC8010E94E21963E272E0C8010E9498
:104820007E1AC8010E94E21981E090E00E94740F94
:1048300062E372E08EE396E00E94DF1764EF71E0BE
:1048400080E090E00E94E8018EE396E00E9440073D
:10485000181619060CF057C08EE396E00E94400728
:10486000892B09F450C08EE396E00E945607F82E7B
:1048700080932605682F82E296E00E94121AFAE0E1
:10488000FF12EACFE0902606F0902706E114F1042B
:1048900071F0C0902206D09023066AE370E0C60152
:1048A0000E949537AC014C195D09892B11F44FEF2B
:1048B0005FEF4F5F5F4F970162E276E0C8010E94B1
:1048C000F31AB8018CE196E00E949719C8010E9482
:1048D000E2191092260563EA71E082E296E00E94F6
:1048E000631ABACF2BE630E053CE8E3014F48850E2
:1048F00056CE863114F48E5052CE863111F080E0BF
:1049000054CE80E452CE84E090E00E94740FCE0139
:1049100081960E94E2190E94FC1688E090E00E94B5
:10492000740F2224239488248394912C3324339469
:104930002E0123E0420E511C5EE3E52E52E0F52EDF
:1049400062E4662E62E0762E7DE2A72EB12CEEE2C6
:10495000CE2ED12C80918C04813009F0C8C10E94E8
:104960001B02609388047093890480938A04909357
:104970008B040E941B02209188043091890440918D
:104980008A0450918B04621B730B840B950B20914E
:10499000090130910A0140910B0150910C016217FD
:1049A00073078407950708F0D5C08EE396E00E9450
:1049B000400718161906ECF60E94770760937F04EB
:1049C0007093800480938104909382046115710533
:1049D0008105910571F220918304309184042F5F49
:1049E0003F4F3093840420938304653E75408105D6
:1049F000910509F047C030927E040E94BC0E0E94CF
:104A000091150E94C40E0E9424156AE070E080E0B7
:104A100090E00E94E8010E94B40E68EE73E080E02E
:104A200090E00E94E8010E94C40E0E94241560EDEF
:104A300077E080E090E00E94E80130927E040E94DE
:104A4000B40E0E9491150E94C40E0E9424156AE0C3
:104A500070E080E090E00E94E8010E94BC0E68EEE9
:104A600073E080E090E00E94E8010E94C40E0E9482
:104A70002415109284041092830460E08BE392E08A
:104A80000E943819809183049091840481309105AB
:104A900099F480917F0490918004A0918104B09159
:104AA000820480930A0590930B05A0930C05B093A4
:104AB0000D05309287045DCF8230910589F4809195
:104AC0007F0490918004A0918104B091820480932E
:104AD000020590930305A0930405B0930505E9CF63
:104AE0008330910589F480917F0490918004A09196
:104AF0008104B09182048093F2049093F304A09314
:104B0000F404B093F504D5CF8430910589F48091F5
:104B10007F0490918004A0918104B09182048093DD
:104B2000EA049093EB04A093EC04B093ED04C1CF9E
:104B3000059709F01ECF1092090110920A011092F8
:104B40000B0110920C0110928704909286048092BF
:104B500085040FCF80918704813029F40E94D91AEF
:104B6000F0E0E0E009951092880410928904109218
:104B70008A0410928B041A8219828EE1D2011D924E
:104B80008A95E9F78091850490918604019709F050
:104B9000E1CE6AE075E085E090E00E94A51D62E04C
:104BA00075E08FE090E00E94A51D62EF74E089E15E
:104BB00090E00E94A51D6AEE74E083E290E00E94FE
:104BC000A51DBAA2A9A26DE2CE0181960E94291D5F
:104BD000DAA2C9A260E0CE0181960E94291D8091CF
:104BE0000D058F9380910C058F9380910B058F930A
:104BF00080910A058F93FF92EF921F930F930E946B
:104C0000CD376AE0C8010E943819809105058F935D
:104C1000809104058F93809103058F938091020505
:104C20008F93FF92EF921F930F930E94CD376AE00C
:104C3000C8010E9438198091F5048F938091F40483
:104C40008F938091F3048F938091F2048F93FF925E
:104C5000EF921F930F930E94CD376AE0C8010E9424
:104C600038198091ED048F938091EC048F9380919B
:104C7000EB048F938091EA048F93FF92EF921F933E
:104C80000F930E94CD370FB6F894DEBF0FBECDBF95
:104C90006AE0C8010E9438196AE080911C06909170
:104CA0001D060E9438192F92F3E6FF937F926F92B0
:104CB0001F930F930E94CD3760E0C8010E943819FE
:104CC0006CE070E080E090E00E94E80110928C04BB
:104CD000109286041092850410928404109283042A
:104CE0000F900F900F900F900F900F904BCF68EE9A
:104CF00073E080E090E00E94E8010E94D91A60ED24
:104D000077E080E090E00E94E8010E943F1B61E0B4
:104D100081E090E00E94D81D61E082E090E00E9476
:104D2000D81D68EE73E080E090E00E94E80160E04A
:104D300083E090E00E94D81D60E084E090E00E9453
:104D4000D81D61E085E690E00E94D81D61E086E60E
:104D500090E00E94D81D60E087E690E00E94D81D98
:104D600061E088E690E00E94D81D61E089E690E06D
:104D70000E94D81D83E090E00E949B1B80939E04BC
:104D800084E090E00E949B1B80939F0485E690E066
:104D90000E949B1B8093D20486E690E00E949B1B9E
:104DA0008093D30488E690E00E949B1B80931C05AF
:104DB0000E94CC0E64EF71E080E090E00E94E80178
:104DC000F0E0E0E0099586E990E00E949B1B8130CD
:104DD00009F077C081E090E00E949B1B813009F0D0
:104DE00070C00E94281C80918D04811102C00E9415
:104DF000421D83E090E00E94740F81E080938F0455
:104E00000E94C31660E08FE00E947C0160E08EE0AB
:104E10000E947C010E94FC1681E090E00E94740FC9
:104E200080918E04813009F041C010929A04109252
:104E300099040E942A018C01892B91F584E090E06D
:104E40000E94740F8091990490919A040196909316
:104E50009A04809399048091990490919A044497BC
:104E6000A9F410929A041092990487E090E00E94AD
:104E7000740F68EB7BE080E090E00E94E80160E066
:104E800081E090E00E94D81DF801099508EE13E03A
:104E900088EE93E00E94B80101501109C9F7C9CF0B
:104EA00010929A041092990410928E0482E08093DA
:104EB0008F040E94C31683E090E00E94740F0E944A
:104EC0003F1B80911C05813009F0F9C080919B0443
:104ED00090919C04019709F0F2C00E94F5100E9485
:104EE0002A01892B01F58091990490919A040196E9
:104EF00090939A048093990464E670E080E090E0D7
:104F00000E94E8018091990490919A04499731F0A8
:104F10008091990490919A04C29709F783E090E0F8
:104F20000E94740FDCCF8091990490919A04499764
:104F30000CF46FC08091990490919A04C2970CF080
:104F400068C010929A04109299040E941B02609308
:104F5000950470939604809397049093980480919D
:104F6000D00481112AC010929104109292041092E0
:104F700093041092940483E090E00E94740F0E94C6
:104F80001B02009195041091960420919704309192
:104F90009804601B710B820B930B0091910410918C
:104FA0009204209193043091940460177107820752
:104FB000930778F510929004E2CF813069F488EB82
:104FC0009BE0A0E0B0E08093910490939204A093C2
:104FD0009304B0939404CFCF823029F488E893E10E
:104FE000A0E0B0E0F0CF833029F480E197E2A0E0C8
:104FF000B0E0E9CF843029F488E99AE3A0E0B0E09A
:10500000E2CF853009F0B7CF80E395E7A0E0B0E0CC
:10501000DACF8091990490919A04C29754F181E07B
:105020008093900410929C0410929B0410929A0416
:10503000109299048091D304811199C383E090E088
:105040000E94740F6CE271E080E090E00E94E80141
:1050500083E090E00E94740F6CE271E080E090E0E9
:105060000E94E8010E94F5108091D30481110E94F2
:10507000E80E80919004811114C08091D804909121
:10508000D904892B09F47FC30E94E31B0E94F51009
:105090008091D30481110E94E80E10929C0410921A
:1050A0009B04109290041092950410929604109212
:1050B00097041092980410929A04109299048EE327
:1050C00096E00E944007181619060CF06BC60E9465
:1050D0001B02609314057093150580931605909339
:1050E00017050E941B0200911405109115052091CF
:1050F000160530911705601B710B820B930B603204
:105100007E448105910508F01FC68EE396E00E945B
:105110004007181619062CF70E94770760931005B0
:105120007093110580931205909313059F938F93AD
:105130007F936F9385E492E09F938F9306E615E04B
:105140001F930F930E94B517C0901005D0901105C2
:10515000E0901205F09013050FB6F894DEBF0FBE75
:10516000CDBFC114D104E104F10409F468C10E9467
:105170001B02609314057093150580931605909398
:10518000170580910E0590910F05009709F0FEC25A
:105190001F921F9289E592E09F938F931F930F9325
:1051A0000E94B5170F900F900F900F900F900F90D7
:1051B0003BE6E32E32E0F32E8EE396E00E944007BA
:1051C00018161906F4F48EE396E00E945607D82EBE
:1051D0008D2D0D2C000C990B9F93DF92FF92EF9277
:1051E0001F930F930E94B5170F900F900F900F9081
:1051F0000F900F90F1E0DF12DFCF80E892E00E9485
:10520000511864E170E080E090E00E94E801209194
:105210000A0530910B0540910C0550910D056091E8
:1052200010057091110580911205909113050E944F
:10523000B11C609306057093070580930805909351
:1052400009059F938F937F936F9380EA92E09F93DA
:105250008F9306E615E01F930F930E94B51764E144
:1052600070E080E090E00E94E8012091020530911A
:10527000030540910405509105056091100570915A
:10528000110580911205909113050E94B11C609345
:10529000FE047093FF0480930005909301059F9393
:1052A0008F937F936F938FEA92E09F938F931F93D7
:1052B0000F930E94B51764E170E080E090E00E94D7
:1052C000E801409006055090070560900805709031
:1052D000090520910A0530910B0540910C0550916C
:1052E0000D05C301B2010E9422106B01F82EE92EB8
:1052F0006093FA04D092FB048093FC049093FD0425
:105300008090FE049090FF04A0900005B0900105ED
:105310002091020530910305409104055091050547
:10532000C501B4010E9422106093F6047093F70443
:105330008093F8049093F9042091F2043091F304DF
:105340004091F4045091F504C301B2010E9422106F
:105350006093EE047093EF048093F0049093F10453
:105360002091EA043091EB044091EC045091ED045B
:10537000C501B4010E9422106093E6047093E70413
:105380008093E8049093E904EF92FF92DF92CF922A
:105390008EEB92E09F938F931F930F930E94B5170C
:1053A0008091F9048F938091F8048F938091F70492
:1053B0008F938091F6048F9382ED92E09F938F9369
:1053C0001F930F930E94B5170FB6F894DEBF0FBE60
:1053D000CDBF8091F1048F938091F0048F938091E1
:1053E000EF048F938091EE048F9386EE92E09F936B
:1053F0008F931F930F930E94B5178091E9048F93A9
:105400008091E8048F938091E7048F938091E60464
:105410008F938AEF92E09F938F931F930F930E9435
:10542000B51780910E0590910F05019690930F0589
:1054300080930E050FB6F894DEBF0FBECDBF00916E
:10544000E2041091E3042091E4043091E504011595
:1054500011052105310509F444CE4091DE04509137
:10546000DF046091E0047091E1044115510561058C
:10547000710509F436CE8091DA049091DB04A09195
:10548000DC04B091DD040097A105B10509F429CE33
:10549000C090FA04D090FB04E090FC04F090FD046E
:1054A0000C151D052E053F0509F068C00091F60496
:1054B0001091F7042091F8043091F9044017510736
:1054C0006207730709F05AC081309105A105B10543
:1054D00009F0A4C183E090E00E949B1B811194C15C
:1054E0001092D9041092D8040E94F5108091D8042B
:1054F0009091D904892B09F4A0C120E030E04AE75B
:1055000054E46091D4047091D5048091D6049091B4
:10551000D7040E9449340E9464180E94E31B8091C2
:10552000D30481110E94E80E1092E2041092E30469
:105530001092E4041092E5041092DE041092DF044D
:105540001092E0041092E1041092DA041092DB044D
:105550001092DC041092DD0410920F0510920E05DB
:105560000E941B0264587E448109910960931405CE
:105570007093150580931605909317054091E204EA
:105580005091E3046091E4047091E5048091EE048D
:105590009091EF04A091F004B091F10448175907DD
:1055A0006A077B0709F09DCD4091DE045091DF042E
:1055B0006091E0047091E1048091E6049091E70429
:1055C000A091E804B091E904481759076A077B07DE
:1055D00009F087CD8091DA049091DB04A091DC047E
:1055E000B091DD04813DFDE49F07F2E0AF07B10516
:1055F00009F058C183E090E00E94740F85E195E0C6
:105600000E943A1860E088E393E00E9438198EE324
:1056100096E00E944007181619060CF075C38EE339
:1056200096E00E944007892B09F46EC38EE396E052
:105630000E945607182F80932605682F82E296E075
:105640000E94121A1A3009F00BC126E030E050E037
:1056500040E062E276E0CE0187960E94F31A8BA5C5
:105660009CA5892B49F06BE373E08FA198A50E945C
:10567000A03711E0892BE1F026E030E050E040E077
:1056800062E276E0CE0181960E94F31A8DA19EA17E
:10569000892B49F062E473E089A19AA10E94A037A6
:1056A00011E0892B09F010E0CE0181960E94E219E9
:1056B000CE0187960E94E219112309F4D4C000910B
:1056C0002606109127060115110509F0D5C019828B
:1056D0006F81605384E690E00E94D81D6885605316
:1056E00085E690E00E94D81D6985605386E690E0CB
:1056F0000E94D81D6A85605387E690E00E94D81DFD
:105700006B85605388E690E00E94D81D6C856053DD
:1057100089E690E00E94D81D6D8560538AE690E08E
:105720000E94D81D6E8560538BE690E00E94D81DC4
:1057300085E690E00E949B1B8093D20486E690E071
:105740000E949B1B8093D30487E690E00E949B1BE2
:105750008093D10488E690E00E949B1B80931C05F7
:1057600089E690E00E949B1B8093D0047CC08091CE
:10577000D204813009F076CC68EE73E08CE291E0DF
:105780000E94770C6FCC0E949D1B80CC81309105CC
:1057900099F4C092E204D092E304E092E404F0921F
:1057A000E504FF92EF92DF92CF928EE093E09F9319
:1057B0008F931F930F9333CE8230910579F4C0926B
:1057C000DE04D092DF04E092E004F092E104FF9264
:1057D000EF92DF92CF928CE193E0E9CF039779F4D7
:1057E000C092DA04D092DB04E092DC04F092DD0493
:1057F000FF92EF92DF92CF928AE293E0D8CF10929D
:105800000F0510920E051BCE813009F06DCEE1E040
:10581000F0E0F093D904E093D80466CE0297A10596
:10582000B10509F061CE83E090E00E949B1B8823C4
:1058300071F3813009F058CE53CE20E030E04AEFCA
:1058400054E46091D4047091D5048091D604909171
:10585000D7040E9449340E9464180E949D1B5FCEA9
:105860001D3009F0DCCE1092260563EA71E082E279
:1058700096E00E94631AD3CE0F31110510F00FE1AC
:1058800010E06091220670912306A801CE010196D6
:105890000E94BE37E1E0F0E0EC0FFD1FE00FF11FCA
:1058A000108216CF811529EE920722E0A207B105DA
:1058B00009F031C262E370E080E090E00E94E8010C
:1058C0008EEC94E02EEAA22E24E0B22ED5011D9299
:1058D0005D018A179B07D1F782E090E00E94740F68
:1058E0006AE08BE392E00E94381981E08093CF0454
:1058F0008093CE0480E00E94E71482E0882E9924F1
:1059000093948091CF04813009F079C18091CE04C5
:10591000813009F005C18EE396E00E944007181619
:105920001906A4F763EA71E0CE0101960E946D1A90
:105930000E94D30797FD06C0682FCE0101960E94F2
:10594000121AF6CFC980DA80C114D10431F00D816A
:105950001E81760101151105E1F50D811E810115EC
:10596000110509F06CC01092AE048EEA94E00E941A
:1059700051186EEA74E089E493E00E94A037892B05
:1059800009F06EC083E090E00E94740F1092CE0484
:105990009092A5049092A4040E9406106AE08BE302
:1059A00092E00E9438190E941B026093AA0470932F
:1059B000AB048093AC049093AD04EEEAF4E0119252
:1059C000AE16BF06E1F7CE0101960E94E2199ECF06
:1059D00071011701BFEF2B1A3B0AF7018081082ED6
:1059E000000C990B0E94C431892B91F701501109C9
:1059F0000C0D1D1DD8018C91082E000C990B0E94D6
:105A0000C431892B31F00E151F0518F00150110912
:105A1000F1CFA8014F5F5F4F4E195F095E834D8341
:105A2000CE14DF0420F4B701C6010E948C37E9814F
:105A3000FA818D819E81E80FF91F10828ECF0F3180
:105A4000110510F00FE110E069817A81A8018EEA5A
:105A500094E00E94BE37F801E255FB4F108285CFDB
:105A60006EEA74E087E593E00E94A037892B31F558
:105A700083E090E00E94740F1092CE048092A504FF
:105A8000B3E0B093A40410929F0410929D0410926E
:105A9000D9041092D8046AE08BE392E00E9438198E
:105AA00060E08CE392E00E94381960919D0483E0ED
:105AB00090E00E94D81D0E94061075CF6EEA74E037
:105AC00085E693E00E94A037892BD1F41092CE0492
:105AD0008092A504E3E0E093A40490929F04909246
